:100000000C942A000C9447000C9447000C94470071
:100010000C9447000C9447000C9447000C94470044
:100020000C9447000C9447000C9447000C94470034
:100030000C9447000C9447000C9447000C94470024
:100040000C9447000C9447000C9447000C94470014
:100050000C94470011241FBECFE5D8E0DEBFCDBF12
:1000600014E0A0E6B0E0E6EAFFE002C005900D92E1
:10007000A83BB107D9F714E0A8EBB4E001C01D928A
:10008000AC3FB107E1F70E9410030C94D1070C9428
:1000900000004F925F926F927F928F929F92AF92E9
:1000A000BF92CF92DF92EF92FF920F931F93CF9365
:1000B000DF93CC24AA240F2EF1E68F2EF0E09F2EA2
:1000C000F02D34010894611C711C4424552468945B
:1000D00041F8480C591C72C06091B804662344F47E
:1000E0008C2F6C2D4A2D2A2D0A2D0E9443045EC0B0
:1000F00065365CF08C2F6C2DF4014081F30120817A
:10010000F20100810E94430451C0772767FD70957A
:10011000872F972F0E94F20520E030E048EC52E450
:100120000E945C05D62FF72EE82ED92EF4016081AF
:1001300070E080E090E00E94F2050D2F1F2D2E2D23
:100140003D2DA90198010E947E060E94C405B62E8D
:10015000F301608170E080E090E00E94F2059B0175
:10016000AC018D2F9F2DAE2DBD2DBC01CD010E9468
:100170007E060E94C405162FF201608170E080E0C7
:1001800090E00E94F2059B01AC018D2F9F2DAE2DBA
:10019000BD2DBC01CD010E947E060E94C405062F24
:1001A0008C2F6C2D4B2D212F0E944304CF5FC43028
:1001B00009F092CFC394F5E0CF1611F0CA2D8CCF81
:1001C0008091B804853634F01092600084E6809304
:1001D000B8041EC08823E4F481E08093600010928C
:1001E000B8040E946507C0E0D1E0BE010E94E106AC
:1001F000809361000E946507BE010E94E106809322
:1002000062000E946507BE010E94E10680936300C0
:1002100080916000813031F48091B8048F5F8093C9
:10022000B80407C0882329F48091B80481508093D2
:10023000B804DF91CF911F910F91FF90EF90DF9065
:10024000CF90BF90AF909F908F907F906F905F9076
:100250004F9008954F925F926F927F928F929F92EC
:10026000AF92BF92CF92DF92EF92FF920F931F93C4
:10027000CF93DF93CC24DD2410E0D0E00F2EF4E602
:100280008F2EF0E09F2EF02D34010894611C711C1C
:1002900044245524689441F8480C591C4DC18C2FB6
:1002A000612F4D2F2D2F0D2F0E9443048091B904F3
:1002B000992787FD90958E159F0551F48C2F612FFE
:1002C000F4014081F3012081F20100810E94430486
:1002D00080916700813009F090C08091B90499271E
:1002E00087FD909597012150304082179307E1F5E3
:1002F000F4016081772767FD7095872F972F0E9403
:10030000F20523EC35EF48E25FE30E947E060E948F
:10031000C405A62EF3016081772767FD7095872FAE
:10032000972F0E94F20523EC35EF48E25FE30E942D
:100330007E060E94C405B62EF2016081772767FD14
:100340007095872F972F0E94F20523EC35EF48E236
:100350005FE30E947E060E94C405062F8C2F612F4A
:100360004A2D2B2D0E9443048091B904992787FDC3
:1003700090959701225030408217930709F0CEC024
:10038000F4016081772767FD7095872F972F0E9472
:10039000F20523EC35EF48EA5EE30E947E060E94F8
:1003A000C405A62EF3016081772767FD7095872F1E
:1003B000972F0E94F20523EC35EF48EA5EE30E9496
:1003C0007E060E94C405B62EF2016081772767FD84
:1003D0007095872F972F0E94F20523EC35EF48EA9E
:1003E0005EE30E947E060E94C405062F8C2F612FBB
:1003F0004A2D2B2D0E94430491C08F3F09F08EC0DF
:1004000097012F5F3F4F8091B904992787FD909501
:1004100028173907E1F5F4016081772767FD7095AA
:10042000872F972F0E94F20523EC35EF48E25FE318
:100430000E947E060E94C405B62EF30160817727D4
:1004400067FD7095872F972F0E94F20523EC35EFFB
:1004500048E25FE30E947E060E94C405A62EF201D8
:100460006081772767FD7095872F972F0E94F2058F
:1004700023EC35EF48E25FE30E947E060E94C4054C
:10048000062F8C2F612F4B2D2A2D0E94430497019C
:100490002E5F3F4F8091B904992787FD90952817CB
:1004A0003907E1F5F4016081772767FD7095872FA3
:1004B000972F0E94F20523EC35EF48EA5EE30E9495
:1004C0007E060E94C405B62EF3016081772767FD82
:1004D0007095872F972F0E94F20523EC35EF48EA9D
:1004E0005EE30E947E060E94C405A62EF201608192
:1004F000772767FD7095872F972F0E94F20523ECD1
:1005000035EF48EA5EE30E947E060E94C405062F8E
:100510008C2F612F4B2D2A2D0E944304CF5F08940E
:10052000E11CF11CC43009F0BACE1F5F84E090E0FA
:10053000C80ED91E153019F07601CD2FB0CE80919E
:100540006700813031F48091B9048F5F8093B904E2
:1005500007C08F3F29F48091B90481508093B9047A
:100560008091B9048E3F31F481E08093670010924E
:10057000B9041FC08631E9F48FEF8093670084E1EE
:100580008093B9040E946507C0E0D1E0BE010E94DB
:10059000E106809364000E946507BE010E94E106A7
:1005A000809365000E946507BE010E94E10680936A
:1005B0006600DF91CF911F910F91FF90EF90DF9038
:1005C000CF90BF90AF909F908F907F906F905F90F3
:1005D0004F9008950F931F93CF93DF930E94650769
:1005E00010E0D0E00DC0812F6C2F4D2F2D2F0D2F3F
:1005F0000E944304CF5FC530B1F71F5F143011F084
:10060000CD2FF1CF8091BB046091BA044FEF2FEF53
:100610000FEF0E944304DF91CF911F910F91089536
:100620000E94F104BA98C29A10E0C0E0D0E001E064
:100630000E94EA02B2991BC0CC2309F4C02F1123F7
:10064000D1F48091BB048F5F8093BB04843039F474
:10065000D093BB048091BA048F5F8093BA048091D9
:10066000BA04853039F4D093BA04102F04C0CD2FCA
:100670001D2F01C0102F0E946C048FE59AEE019788
:10068000F1F700C00000D4CF4F925F926F927F923B
:100690008F929F92AF92BF92CF92DF92EF92FF9292
:1006A0000F931F93CF93DF93CDB7DEB728970FB685
:1006B000F894DEBF0FBECDBF6D837E838F83988796
:1006C00029833A834B835C8325013601CA01B90132
:1006D0000E9408074C01C801B7010E9408075C018D
:1006E000C301B2010E9408078C016B8D7C8D8D8D3A
:1006F0009E8D0E940807080F191FB801882777FDF3
:100700008095982F0E94F2056B017C01B4016A0D5F
:100710007B1D882777FD8095982F0E94F2059B010D
:10072000AC01C701B6010E945C05162F072FB82E39
:10073000A92E6D817E818F819885C12ED02EEB2CC4
:10074000FA2CA70196010E947E06A30192010E9445
:10075000F8046B017C0169817A818B819C81E02F97
:10076000012F1E2F2B2D3A2DA90198010E947E06E4
:100770009B01AC01C701B6010E94F704462F572F19
:10078000682F792FCB01BA0128960FB6F894DEBFF7
:100790000FBECDBFDF91CF911F910F91FF90EF90D2
:1007A000DF90CF90BF90AF909F908F907F906F9091
:1007B0005F904F90089580E091E00197F1F70895E0
:1007C0008F929F92AF92BF92CF92DF92EF92FF9261
:1007D0000F931F93CF93DF93DD24AA24BB24689447
:1007E000A1F8CC240F2EF4EBEF2EF0E0FF2EF02D2D
:1007F00025C0FE01329780819701280F311DFE012F
:1008000031978081D701A80FB11D88814701880EDB
:10081000911C8D2D612FF90140812C91F4010081F3
:100820000E9443042C961F5F153019F783E090E077
:10083000A80EB91ED39494E0D91629F0E501C85842
:10084000DF4F1C2DD6CF8091BC049091BD04A091A8
:10085000BE04B091BF040196A11DB11D8093BC04DC
:100860009093BD04A093BE04B093BF04DF91CF91D9
:100870001F910F91FF90EF90DF90CF90BF90AF90BE
:100880009F908F9008950F93A82FB0E0CD01880F0F
:10089000991F8A0F9B1F70E0FB01EE0FFF1FE60FF1
:1008A000F71FEE0FFF1FEE0FFF1FE80FF91FE054B9
:1008B000FB4F84EB93E0DC01A40FB11D3C9130832E
:1008C000DC01A20FB11D2C912183800F911DDC0151
:1008D0008C9182830F910895EF92FF920F931F9353
:1008E000CF93DF93EE24FF246894E1F805E015C070
:1008F000FE013297DE01119780816C9148810E9440
:10090000A40411502C96112399F783E090E0E80E8F
:10091000F91E9EE0E916F10429F0E701C054DB4F0F
:10092000102FE6CFC4E0D0E080E060E040E00E941D
:10093000A4042197C9F70E94E804DF91CF911F9189
:100940000F91FF90EF90089527E030E090E0C0987D
:10095000FC01022E02C0F595E7950A94E2F7E0FF4C
:1009600002C0C19A01C0C198C09A215030405FEFC7
:100970002F3F350761F787E090E070E0C0989B015A
:10098000082E02C0359527950A94E2F720FF02C091
:10099000C19A01C0C198C09A01972FEF8F3F92076B
:1009A00069F787E090E050E0C0989A01082E02C0F5
:1009B000359527950A94E2F720FF02C0C19A01C03D
:1009C000C198C09A01972FEF8F3F920769F708955A
:1009D000C09AC09887EE93E00197F1F700C000003D
:1009E000089587B3836087BB0E94E8040895505838
:1009F000BB27AA270ED048C139D130F03ED120F014
:100A000031F49F3F11F41EF42EC10EF4E095E7FB84
:100A100024C1E92F4AD180F3BA176207730784070C
:100A2000950718F071F49EF562C10EF4E0950B2E57
:100A3000BA2FA02D0B01B90190010C01CA01A00130
:100A40001124FF27591B99F0593F50F4503E68F18B
:100A50001A16F040A22F232F342F4427585FF3CFCC
:100A6000469537952795A795F0405395C9F77EF49D
:100A70001F16BA0B620B730B840BBAF09150A1F0E6
:100A8000FF0FBB1F661F771F881FC2F70EC0BA0F6C
:100A9000621F731F841F48F4879577956795B795F4
:100AA000F7959E3F08F0B3CF9395880F08F09927EC
:100AB000EE0F9795879508950CD0E6C0DED040F0F4
:100AC000D5D030F021F45F3F19F0C7C0511110C1EB
:100AD000CAC0EBD098F39923C9F35523B1F3951B02
:100AE000550BBB27AA2762177307840738F09F5F4F
:100AF0005F4F220F331F441FAA1FA9F333D00E2EBE
:100B00003AF0E0E830D091505040E695001CCAF72A
:100B100029D0FE2F27D0660F771F881FBB1F2617EF
:100B200037074807AB07B0E809F0BB0B802DBF01C2
:100B3000FF2793585F4F2AF09E3F510568F08DC004
:100B4000D7C05F3FECF3983EDCF3869577956795C9
:100B5000B795F7959F5FC9F7880F911D9695879573
:100B600097F90895E1E0660F771F881FBB1F621792
:100B700073078407BA0720F0621B730B840BBA0B50
:100B8000EE1F88F7E095089598D088F09F5790F071
:100B9000B92F9927B751A0F0D1F0660F771F881FA2
:100BA000991F1AF0BA95C9F712C0B13081F09FD0E1
:100BB000B1E008959CC0672F782F8827B85F39F07F
:100BC000B93FCCF3869577956795B395D9F73EF401
:100BD00090958095709561957F4F8F4F9F4F0895A9
:100BE000E89409C097FB3EF49095809570956195C7
:100BF0007F4F8F4F9F4F9923A9F0F92F96E9BB277D
:100C00009395F695879577956795B795F111F8CFF8
:100C1000FAF4BB0F11F460FF1BC06F5F7F4F8F4F63
:100C20009F4F16C0882311F096E911C0772321F059
:100C30009EE8872F762F05C0662371F096E8862FF1
:100C400070E060E02AF09A95660F771F881FDAF748
:100C5000880F9695879597F9089597F99F6780E88B
:100C600070E060E008959FEF80EC089500240A94FE
:100C70001616170618060906089500240A94121677
:100C80001306140605060895092E0394000C11F4AA
:100C9000882352F0BB0F40F4BF2B11F460FF04C057
:100CA0006F5F7F4F8F4F9F4F089557FD9058440FB0
:100CB000551F59F05F3F71F04795880F97FB991FBB
:100CC00061F09F3F79F08795089512161306140678
:100CD000551FF2CF4695F1DF08C016161706180605
:100CE000991FF1CF86957105610508940895E894E0
:100CF000BB2766277727CB0197F908950BD0C4CF80
:100D0000B5DF28F0BADF18F0952309F0A6CFABCFF6
:100D10001124EECFCADFA0F3959FD1F3950F50E0D9
:100D2000551F629FF001729FBB27F00DB11D639F9D
:100D3000AA27F00DB11DAA1F649F6627B00DA11D43
:100D4000661F829F2227B00DA11D621F739FB00DE9
:100D5000A11D621F839FA00D611D221F749F332759
:100D6000A00D611D231F849F600D211D822F762FF2
:100D70006A2F11249F5750408AF0E1F088234AF0EF
:100D8000EE0FFF1FBB1F661F771F881F915050403B
:100D9000A9F79E3F510570F060CFAACF5F3FECF3FB
:100DA000983EDCF3869577956795B795F795E79527
:100DB0009F5FC1F7FE2B880F911D9695879597F938
:100DC000089597FB092E07260AD077FD04D00CD092
:100DD00006D000201AF4709561957F4F0895F6F7BC
:100DE000909581959F4F0895AA1BBB1B51E107C0A9
:100DF000AA1FBB1FA617B70710F0A61BB70B881FAB
:100E0000991F5A95A9F780959095BC01CD01089539
:100E10009C0197FF03C0309521953F4FC90108956C
:100E20008F929F92AF92BF92CF92DF92EF92FF92FA
:100E3000CF93DF93EC0188819981AA81BB810097D0
:100E4000A105B10521F484E299EDABE5B7E0BC0161
:100E5000CD012DE133EF41E050E00E9494074901BC
:100E60005A0127EA31E440E050E00E9475076B0127
:100E70007C01C501B4012CEE34EF4FEF5FEF0E940F
:100E80007507DC01CB01C80ED91EEA1EFB1EF7FE5A
:100E900008C08FEF9FEFAFEFBFE7C80ED91EEA1E65
:100EA000FB1EC882D982EA82FB82C6019F77DF914E
:100EB000CF91FF90EF90DF90CF90BF90AF909F9039
:100EC0008F9008950E941007089584EB94E00E948B
:100ED00010070895A0E0B0E08093B4049093B504A7
:100EE000A093B604B093B7040895629FD001739F96
:100EF000F001829FE00DF11D649FE00DF11D929FB6
:100F0000F00D839FF00D749FF00D659FF00D9927F4
:100F1000729FB00DE11DF91F639FB00DE11DF91F18
:100F2000BD01CF011124089597FB092E05260ED08F
:100F300057FD04D014D00AD0001C38F450954095C9
:100F4000309521953F4F4F4F5F4F0895F6F790959D
:100F50008095709561957F4F8F4F9F4F0895A1E2C7
:100F60001A2EAA1BBB1BFD010DC0AA1FBB1FEE1F23
:100F7000FF1FA217B307E407F50720F0A21BB30B6E
:100F8000E40BF50B661F771F881F991F1A9469F7EA
:100F900060957095809590959B01AC01BD01CF0146
:060FA0000895F894FFCF54
:100FA60001FF0080FF008001FF000000FF0000003D
:100FB600FFFFFFFF00004842DDD500F95B00BAF0F5
:100FC6000077FE00F95B009E0300FE8900E7C9007A
:100FD600B7F100FE89008AFE0047F10071FE00E5C8
:100FE600CC0047F10012C100FE8C00CB1900F0B90D
:100FF60000C2EB007F00007C000079000076000054
:101006007200006F00006C01006901006602006357
:1010160003006003005D04005A05005706005407EC
:10102600005108004E09004B0B00480C00450D000E
:10103600430F004010003D12003B130038150035E9
:101046001700331900301B002E1D002B1F0029210D
:1010560000272300252500222700202A001E2C0019
:101066001C2E001A310018330016360015390013ED
:101076003B00113E001041000E43000D46000C4996
:10108600000A4C00094F0008520007550006580098
:10109600055B00045E000361000264000267000154
:1010A6006A00016D00007000007300007600007A8F
:1010B60000007D000080000083000086000089009B
:1010C600008C00018F000193000296000299000334
:1010D6009C00049F0004A20005A50006A80007AB1B
:1010E6000008AE000AB1000BB4000CB6000EB90041
:1010F6000FBC0011BF0012C10014C40016C70017B0
:10110600C90019CC001BCE001DD1001FD30021D56C
:101116000023D80026DA0028DC002ADE002DE000B5
:101126002FE20032E40034E60037E80039EA003CFA
:10113600EB003FED0041EF0044F00047F1004AF3B9
:10114600004DF4004FF50052F60055F80058F9002E
:101156005BF9005EFA0061FB0064FC0068FC006B52
:10116600FD006EFD0071FE0074FE0077FE007AFE43
:10117600007DFE0081FE0084FE0087FE008AFE00E0
:101186008DFE0090FD0093FD0096FC009AFC009DEC
:10119600FB00A0FA00A3F900A6F900A9F800ACF636
:1011A60000AFF500B1F400B4F300B7F100BAF000F7
:1011B600BDEF00BFED00C2EB00C5EA00C7E800CAFC
:1011C600E600CCE400CFE200D1E000D4DE00D6DCBD
:1011D60000D8DA00DBD800DDD500DFD300E1D1008E
:1011E600E3CE00E5CC00E7C900E8C700EAC400EC9E
:1011F600C100EDBF00EFBC00F0B900F2B600F3B4D9
:1012060000F4B100F6AE00F7AB00F8A800F9A500AF
:10121600FAA200FA9F00FB9C00FC9900FC9600FDD8
:101226009300FD8F00FE8C00FE8900FE8600FE8383
:1012360000FE8000FE7D00FE7A00FE7600FE730052
:10124600FE7000FD6D00FD6A00FC6700FC6400FB9B
:101256006100FA5E00F95B00F85800F75500F65297
:1012660000F54F00F44C00F24900F14600F043004F
:10127600EE4100ED3E00EB3B00E93900E83600E6C2
:101286003300E43100E22E00E02C00DE2A00DC27E9
:1012960000D92500D72300D52100D31F00D01D007B
:1012A600CE1B00CB1900C91700C61500C31300C119
:1012B6001200BE1000BB0F00B90D00B60C00B30B38
:1012C60000B00900AD0800AA0700A70600A40500A3
:1012D600A104009E03009B03009802009501009262
:1012E60001008F00008C000088000085000082004D
:1012F600007F000000000000000000000000000069
:1013060000000000000000000001010101010101D0
:101316000102020202020303030303040404040598
:101326000505050606060707070808080909090A44
:101336000A0A0B0B0C0C0D0D0D0E0E0F0F101011D3
:101346001112121313141515161617171819191A40
:101356001B1B1C1D1D1E1F1F20212122232424258B
:1013660026272828292A2B2C2D2D2E2F30313233B3
:10137600343536373738393A3B3C3D3E3F414243B8
:101386004445464748494A4B4D4E4F505152545595
:101396005657585A5B5C5D5F606163646567686950
:1013A6006B6C6D6F707273757677797A7C7D7F80E2
:1013B60082838587888A8B8D8E9092939597989A4B
:1013C6009C9D9FA1A2A4A6A8A9ABADAFB0B2B4B68E
:1013D600B8BABBBDBFC1C3C5C7C9CBCDCFD1D3D5A5
:1013E600D7D9DBDDDFE1E3E5E7E9EBEDEFF1F4F695
:0813F600F8FAFCFF0100000001
:00000001FF
